{
  "_format": "hh-sol-artifact-1",
  "contractName": "APISubscription",
  "sourceName": "contracts/APISubscription.sol",
  "abi": [
    {
      "inputs": [],
      "stateMutability": "nonpayable",
      "type": "constructor"
    },
    {
      "anonymous": false,
      "inputs": [
        {
          "indexed": true,
          "internalType": "address",
          "name": "user",
          "type": "address"
        },
        {
          "indexed": false,
          "internalType": "enum APISubscription.Tier",
          "name": "tier",
          "type": "uint8"
        },
        {
          "indexed": false,
          "internalType": "uint256",
          "name": "expiry",
          "type": "uint256"
        }
      ],
      "name": "Subscribed",
      "type": "event"
    },
    {
      "inputs": [
        {
          "internalType": "address",
          "name": "_user",
          "type": "address"
        }
      ],
      "name": "getSubscription",
      "outputs": [
        {
          "internalType": "uint256",
          "name": "",
          "type": "uint256"
        },
        {
          "internalType": "enum APISubscription.Tier",
          "name": "",
          "type": "uint8"
        },
        {
          "internalType": "bool",
          "name": "",
          "type": "bool"
        }
      ],
      "stateMutability": "view",
      "type": "function"
    },
    {
      "inputs": [],
      "name": "owner",
      "outputs": [
        {
          "internalType": "address",
          "name": "",
          "type": "address"
        }
      ],
      "stateMutability": "view",
      "type": "function"
    },
    {
      "inputs": [
        {
          "internalType": "enum APISubscription.Tier",
          "name": "_tier",
          "type": "uint8"
        }
      ],
      "name": "subscribe",
      "outputs": [],
      "stateMutability": "payable",
      "type": "function"
    },
    {
      "inputs": [
        {
          "internalType": "address",
          "name": "",
          "type": "address"
        }
      ],
      "name": "subscriptions",
      "outputs": [
        {
          "internalType": "uint256",
          "name": "expiry",
          "type": "uint256"
        },
        {
          "internalType": "enum APISubscription.Tier",
          "name": "tier",
          "type": "uint8"
        },
        {
          "internalType": "bool",
          "name": "active",
          "type": "bool"
        }
      ],
      "stateMutability": "view",
      "type": "function"
    },
    {
      "inputs": [
        {
          "internalType": "enum APISubscription.Tier",
          "name": "",
          "type": "uint8"
        }
      ],
      "name": "tierConfigs",
      "outputs": [
        {
          "internalType": "uint256",
          "name": "fee",
          "type": "uint256"
        },
        {
          "internalType": "uint256",
          "name": "duration",
          "type": "uint256"
        }
      ],
      "stateMutability": "view",
      "type": "function"
    },
    {
      "inputs": [],
      "name": "withdraw",
      "outputs": [],
      "stateMutability": "nonpayable",
      "type": "function"
    }
  ],
  "bytecode": "0x608060405234801561001057600080fd5b50336000806101000a81548173ffffffffffffffffffffffffffffffffffffffff021916908373ffffffffffffffffffffffffffffffffffffffff1602179055506040518060400160405280662386f26fc10000815260200162278d008152506001600080600181111561008757610086610130565b5b600181111561009957610098610130565b5b81526020019081526020016000206000820151816000015560208201518160010155905050604051806040016040528066b1a2bc2ec5000081526020016276a700815250600160006001808111156100f4576100f3610130565b5b600181111561010657610105610130565b5b8152602001908152602001600020600082015181600001556020820151816001015590505061015f565b7f4e487b7100000000000000000000000000000000000000000000000000000000600052602160045260246000fd5b610a0a8061016e6000396000f3fe6080604052600436106100555760003560e01c80630cbebc241461005a5780633ccfd60b1461009957806349c7e639146100b05780638da5cb5b146100cc5780639da9db2a146100f7578063f046395a14610135575b600080fd5b34801561006657600080fd5b50610081600480360381019061007c91906106ab565b610174565b60405161009093929190610783565b60405180910390f35b3480156100a557600080fd5b506100ae610258565b005b6100ca60048036038101906100c591906107df565b61034f565b005b3480156100d857600080fd5b506100e16105bc565b6040516100ee919061081b565b60405180910390f35b34801561010357600080fd5b5061011e600480360381019061011991906107df565b6105e0565b60405161012c929190610836565b60405180910390f35b34801561014157600080fd5b5061015c600480360381019061015791906106ab565b610604565b60405161016b93929190610783565b60405180910390f35b600080600080600260008673ffffffffffffffffffffffffffffffffffffffff1673ffffffffffffffffffffffffffffffffffffffff168152602001908152602001600020604051806060016040529081600082015481526020016001820160009054906101000a900460ff1660018111156101f3576101f26106f1565b5b6001811115610205576102046106f1565b5b81526020016001820160019054906101000a900460ff161515151581525050905060008160400151801561023c5750428260000151115b9050816000015182602001518294509450945050509193909250565b60008054906101000a900473ffffffffffffffffffffffffffffffffffffffff1673ffffffffffffffffffffffffffffffffffffffff163373ffffffffffffffffffffffffffffffffffffffff16146102e6576040517f08c379a00000000000000000000000000000000000000000000000000000000081526004016102dd906108bc565b60405180910390fd5b60008054906101000a900473ffffffffffffffffffffffffffffffffffffffff1673ffffffffffffffffffffffffffffffffffffffff166108fc479081150290604051600060405180830381858888f1935050505015801561034c573d6000803e3d6000fd5b50565b600060016000836001811115610368576103676106f1565b5b600181111561037a576103796106f1565b5b8152602001908152602001600020604051806040016040529081600082015481526020016001820154815250509050806000015134146103ef576040517f08c379a00000000000000000000000000000000000000000000000000000000081526004016103e690610928565b60405180910390fd5b6000600260003373ffffffffffffffffffffffffffffffffffffffff1673ffffffffffffffffffffffffffffffffffffffff16815260200190815260200160002060000154905060004282116104455742610447565b815b905060405180606001604052808460200151836104649190610977565b815260200185600181111561047c5761047b6106f1565b5b815260200160011515815250600260003373ffffffffffffffffffffffffffffffffffffffff1673ffffffffffffffffffffffffffffffffffffffff1681526020019081526020016000206000820151816000015560208201518160010160006101000a81548160ff021916908360018111156104fc576104fb6106f1565b5b021790555060408201518160010160016101000a81548160ff0219169083151502179055509050503373ffffffffffffffffffffffffffffffffffffffff167f044f95a2d17727b5b87e4f23d70278b59a2b0b285289cc9021cac8cdba4797b785600260003373ffffffffffffffffffffffffffffffffffffffff1673ffffffffffffffffffffffffffffffffffffffff168152602001908152602001600020600001546040516105ae9291906109ab565b60405180910390a250505050565b60008054906101000a900473ffffffffffffffffffffffffffffffffffffffff1681565b60016020528060005260406000206000915090508060000154908060010154905082565b60026020528060005260406000206000915090508060000154908060010160009054906101000a900460ff16908060010160019054906101000a900460ff16905083565b600080fd5b600073ffffffffffffffffffffffffffffffffffffffff82169050919050565b60006106788261064d565b9050919050565b6106888161066d565b811461069357600080fd5b50565b6000813590506106a58161067f565b92915050565b6000602082840312156106c1576106c0610648565b5b60006106cf84828501610696565b91505092915050565b6000819050919050565b6106eb816106d8565b82525050565b7f4e487b7100000000000000000000000000000000000000000000000000000000600052602160045260246000fd5b60028110610731576107306106f1565b5b50565b600081905061074282610720565b919050565b600061075282610734565b9050919050565b61076281610747565b82525050565b60008115159050919050565b61077d81610768565b82525050565b600060608201905061079860008301866106e2565b6107a56020830185610759565b6107b26040830184610774565b949350505050565b600281106107c757600080fd5b50565b6000813590506107d9816107ba565b92915050565b6000602082840312156107f5576107f4610648565b5b6000610803848285016107ca565b91505092915050565b6108158161066d565b82525050565b6000602082019050610830600083018461080c565b92915050565b600060408201905061084b60008301856106e2565b61085860208301846106e2565b9392505050565b600082825260208201905092915050565b7f4e6f74206f776e65720000000000000000000000000000000000000000000000600082015250565b60006108a660098361085f565b91506108b182610870565b602082019050919050565b600060208201905081810360008301526108d581610899565b9050919050565b7f496e636f72726563742045544820616d6f756e74000000000000000000000000600082015250565b600061091260148361085f565b915061091d826108dc565b602082019050919050565b6000602082019050818103600083015261094181610905565b9050919050565b7f4e487b7100000000000000000000000000000000000000000000000000000000600052601160045260246000fd5b6000610982826106d8565b915061098d836106d8565b92508282019050808211156109a5576109a4610948565b5b92915050565b60006040820190506109c06000830185610759565b6109cd60208301846106e2565b939250505056fea2646970667358221220579b29384c252845a0a226cf1d3d994e8df4a5805ed4809d34abcc1bc6a0367564736f6c63430008130033",
  "linkReferences": {},
  "deployedLinkReferences": {}
}